{
  "contractName": "BookHashes",
  "abi": [
    {
      "inputs": [
        {
          "internalType": "string",
          "name": "hash",
          "type": "string"
        }
      ],
      "name": "hashExists",
      "outputs": [
        {
          "internalType": "bool",
          "name": "",
          "type": "bool"
        }
      ],
      "stateMutability": "view",
      "type": "function"
    },
    {
      "inputs": [
        {
          "internalType": "string",
          "name": "hash",
          "type": "string"
        }
      ],
      "name": "addHash",
      "outputs": [],
      "stateMutability": "nonpayable",
      "type": "function"
    }
  ],
  "bytecode": "0x608060405234801561001057600080fd5b50610475806100206000396000f3fe608060405234801561001057600080fd5b50600436106100365760003560e01c80639871e5101461003b578063aeb276021461006b575b600080fd5b610055600480360381019061005091906102bb565b610087565b604051610062919061031f565b60405180910390f35b610085600480360381019061008091906102bb565b6100bb565b005b6000808260405161009891906103ab565b908152602001604051809103902060009054906101000a900460ff169050919050565b6000816040516100cb91906103ab565b908152602001604051809103902060009054906101000a900460ff1615610127576040517f08c379a000000000000000000000000000000000000000000000000000000000815260040161011e9061041f565b60405180910390fd5b600160008260405161013991906103ab565b908152602001604051809103902060006101000a81548160ff02191690831515021790555050565b6000604051905090565b600080fd5b600080fd5b600080fd5b600080fd5b6000601f19601f8301169050919050565b7f4e487b7100000000000000000000000000000000000000000000000000000000600052604160045260246000fd5b6101c88261017f565b810181811067ffffffffffffffff821117156101e7576101e6610190565b5b80604052505050565b60006101fa610161565b905061020682826101bf565b919050565b600067ffffffffffffffff82111561022657610225610190565b5b61022f8261017f565b9050602081019050919050565b82818337600083830152505050565b600061025e6102598461020b565b6101f0565b90508281526020810184848401111561027a5761027961017a565b5b61028584828561023c565b509392505050565b600082601f8301126102a2576102a1610175565b5b81356102b284826020860161024b565b91505092915050565b6000602082840312156102d1576102d061016b565b5b600082013567ffffffffffffffff8111156102ef576102ee610170565b5b6102fb8482850161028d565b91505092915050565b60008115159050919050565b61031981610304565b82525050565b60006020820190506103346000830184610310565b92915050565b600081519050919050565b600081905092915050565b60005b8381101561036e578082015181840152602081019050610353565b60008484015250505050565b60006103858261033a565b61038f8185610345565b935061039f818560208601610350565b80840191505092915050565b60006103b7828461037a565b915081905092915050565b600082825260208201905092915050565b7f4861736820616c72656164792065786973747300000000000000000000000000600082015250565b60006104096013836103c2565b9150610414826103d3565b602082019050919050565b60006020820190508181036000830152610438816103fc565b905091905056fea2646970667358221220bc4f4e5f58309d7cb71b8c61be8ac2b4165ca5cc8868fa42b65f8c1272bb4afc64736f6c63430008130033",
  "immutableReferences": {},
  "source": "// SPDX-License-Identifier: MIT\n\npragma solidity ^0.8.0;\n\ncontract BookHashes {\n    mapping(string => bool) private hashes;\n\n    function hashExists(string memory hash) public view returns (bool) {\n        return hashes[hash];\n    }\n\n    function addHash(string memory hash) public {\n        require(!hashes[hash], \"Hash already exists\");\n        hashes[hash] = true;\n    }\n}\n",
  "sourcePath": "/Users/zohaibarshad/Desktop/plenspiel/outright-legal/contracts/BookHashes.sol",
  "compiler": {
    "name": "solc",
    "version": "0.8.19+commit.7dd6d404.Emscripten.clang"
  },
  "schemaVersion": "3.4.13",
  "updatedAt": "2023-03-07T11:59:38.690Z",
  "devdoc": {
    "kind": "dev",
    "methods": {},
    "version": 1
  },
  "userdoc": {
    "kind": "user",
    "methods": {},
    "version": 1
  }
}